:020000040800F2
:10000000E0160020DD020008954C0008EF460008CD
:10001000D14B0008C9230008F55E0008000000006D
:100020000000000000000000000000007350000805
:10003000DF2400080000000071500008755000081F
:10004000F7020008F7020008F7020008F7020008AC
:10005000F7020008F7020008F7020008F70200089C
:10006000F7020008F7020008F70200083124000830
:10007000F7020008F7020008F7020008F70200087C
:10008000F7020008F7020008F7020008F70200086C
:10009000F7020008F7020008F7020008F70200085C
:1000A000F7020008F7020008F7020008F70200084C
:1000B000F7020008F7020008F7020008F70200083C
:1000C000F7020008F7020008F7020008F70200082C
:1000D000F7020008715B0008F7020008F702000849
:1000E000E1240008F7020008F7020008F702000800
:1000F000F7020008F7020008F7020008F7020008FC
:10010000F7020008F7020008F7020008F7020008EB
:10011000F7020008F7020008F7020008F7020008DB
:10012000F7020008F7020008F7020008F7020008CB
:10013000F7020008F7020008F7020008F7020008BB
:10014000F7020008F7020008F7020008F7020008AB
:10015000F7020008F7020008F7020008F70200089B
:10016000F7020008F7020008F7020008F70200088B
:10017000F7020008F7020008F7020008F70200087B
:10018000F7020008F7020008F7020008F70200086B
:10019000F702000800000000F7020008F70200085C
:1001A000F7020008F7020008F7020008F70200084B
:1001B000F7020008F7020008F7020008F70200083B
:1001C000F7020008F7020008F7020008F70200082B
:1001D000F7020008F702000800F002F800F06FF8DC
:1001E0000AA090E8000C82448344AAF10107DA4592
:1001F00001D100F064F8AFF2090EBAE80F0013F075
:10020000010F18BFFB1A43F001031847E0830000F9
:10021000008400000A444FF0000C10F8013B13F07A
:10022000070408BF10F8014B1D1108BF10F8015B4F
:10023000641E05D010F8016B641E01F8016BF9D142
:1002400013F0080F1EBF10F8014BAD1C0C1B09D199
:100250006D1E58BF01F801CBFAD505E014F8016B0B
:1002600001F8016B6D1EF9D59142D6D3704700009D
:100270000023002400250026103A28BF78C1FBD8AF
:10028000520728BF30C148BF0B607047662907F08E
:100290001D84002070471FB507F00EFC00F0A0FE83
:1002A00004000020002106F075FE401C6060002064
:1002B000002106F059FEE0601FBD10B510BD01F031
:1002C00051F91146FFF7E7FF06F010FD01F09EFB24
:1002D00003B4FFF7F2FF03BC01F000FC09488047BC
:1002E00009480047FEE7FEE7FEE7FEE7FEE7FEE718
:1002F000FEE7FEE7FEE7FEE704480549054A064B30
:1003000070470000E1500008D9010008E01000200B
:10031000E0160020E0120020E012002053EA020C58
:1003200000F069802DE9F04B4FF00006002B1FBF55
:10033000B3FA83F503FA05F424FA05F65E4012BF1A
:100340001643B2FA82F502FA05F4C5F120051EBF84
:1003500022FA05FC44EA0C04203556EA044C4FEA24
:10036000144418BF641C4FF000084FF0000990427D
:1003700071EB030C39D3002919BFB1FA81F701FAE7
:1003800007F6B0FA80F700FA07F6C7F120071EBF9C
:1003900020FA07FC46EA0C062037B6FBF4FCA7EB74
:1003A0000507103F07F01F0BCBF120060CFA0BFBE3
:1003B0002CFA06F644BFB3460026202FA4BF5E46A3
:1003C0004FF0000B5BEA060C08BF4FF0010B19EB76
:1003D0000B09ABFB027C48EB0608C01B06FB02CCFA
:1003E0000BFB03CC71EB0C01C1E70B460246414607
:1003F0004846BDE8F08B13B54FF000004FF0000108
:10040000AFF30080BDE81C40704700000FB41CB57E
:10041000074B06AA7B4469460090059800F03FFB15
:100420000020694600F04EFB1CBC5DF814FB000088
:10043000AD0600002DE9F0474FF0000A894604465A
:10044000C0F820A02046E1688847002876D02528FB
:1004500006D0D4E901219047206A401C2062F1E7D0
:10046000E168204600268847C4F81CA005460027FE
:10047000C4F818A02A2D09D0284606F00FFB38B37F
:1004800004EB8708303DC8F8185019E059F8041BF0
:10049000204604EB87029161E1688847012F0546F9
:1004A00018D1E069002820DA26F020061DE0D8F8EF
:1004B000180000EB800005EB40003038C8F8180049
:1004C0002046E1688847054606F0E8FA0028EED1A4
:1004D000012F0AD02E2D08D12046E16888477F1CC5
:1004E0000546022F46F02006C4DBA069002803DA87
:1004F000404246F00106A061F00701D026F0100648
:100500006C2D0AD0682D08D04C2D39D06A2D35D0ED
:10051000742D35D07A2D33D016E0E1682F46204671
:100520008847B84205460AD16C2F27D04FF4806027
:10053000E168064320468847054605E027E06C2F22
:100540001AD04FF4807006430DB3A5F1410019286D
:1005500002D8203546F400664A46294620462660E1
:100560004E46FFF793FE80B101280BD0F61D26F012
:10057000070000F1080965E74020E4E78020D7E79D
:100580000020D5E706F104095CE7284661E7206A08
:10059000BDE8F0870FB400B58DB010A909900091A7
:1005A0000B904FF0FF300A9000200C9006487844E2
:1005B0000690064878446A4607900F9909A800F00B
:1005C000DFFC0DB05DF814FBEF090000070A000026
:1005D00010B5431C02E010F8011B71B18107FAD17C
:1005E0004FF0013202C88C1A8C4314EAC211F9D0C0
:1005F000C01A0A0603D0C01E10BDC01A10BD0A04DE
:1006000001D0801E10BD0902FCD0401E10BD4FF06D
:10061000000200B5134694469646203922BFA0E852
:100620000C50A0E80C50B1F12001BFF4F7AF09075E
:1006300028BFA0E80C5048BF0CC05DF804EB89004F
:1006400028BF40F8042B08BF704748BF20F8022B92
:1006500011F0804F18BF00F8012B704770477047AA
:10066000704710B500F0C0FC006810BD10B504461E
:1006700000F0BAFC046010BD70472DE9FF4F0C4636
:100680001E464FF0FF378BB0D2E90001DDF86080E5
:100690000A908A46C1F30A5505B93D46002108462D
:1006A0004FF00000BAF1000F00F4400005DA00EB53
:1006B00080004FF4400101EA50004FEA9059B9F12F
:1006C000010F00DDB9460A9850EA4A000ED044F600
:1006D0001050A5F2FF3545432F14B8F1000F1ED07E
:1006E0007542291E1EDDC9F100021CE0B8F1010FA0
:1006F0004FF0000001D0302103E0F24305E0215427
:10070000401CB042FBDB30460022002121540B99F3
:10071000C1F80880C1E900200FB0BDE8F08FBD1B13
:100720006D1CDEE74A4600DA694206A800F0A8FE22
:1007300006AB93E8070003AB83E8070050460A992D
:1007400001F0D3F98DE80700A0F500501F380090A4
:100750000398002D09DD42F21F014A46084403A90F
:100760000390684601F05DFC08E0A0F500504A46A1
:100770001F3803A90390684601F07BFC8DE8070051
:100780000004000C03D04FF0FF30410800E0104699
:10079000B8F1000F03D00022009215461EE0751E2E
:1007A00005D400F025FC303262556D1EF9D5B346F4
:1007B0000122084302D000227F1C04E02078302868
:1007C00001D100227F1E002A099786D01DE0112D3D
:1007D00007DA00F00DFC303262556D1C50EA010260
:1007E000F5D1084302D00098C8B10EE00021681E80
:1007F00005E0235C625C63542254401E491C814224
:10080000F7DBAB46A81B401E0990002004F80B0044
:100810000B98099AC0F80880C0E9002B7CE71126E4
:100820004FF0000859E72DE9F04F88460446D21DE5
:1008300022F0070191B0D1E90001CDE90A0105F0EC
:1008400099FB02460B98C00F01D02D2007E02068CD
:10085000810701D52B2002E0202101EAC000032AF4
:10086000099001D0072A05DB03464146204600F0E7
:100870000DFC0BE12078800601D5E06900E0062040
:10088000B8F1650F814606D0B8F1660F18D0B8F1FF
:10089000670F70D131E00020B9F1110F009001DB3A
:1008A000112301E009F101030AAA01A90CA8FFF72D
:1008B000E4FEDDE90C70002609F10105834647E0FE
:1008C00001204B4600904FF000470AAA01A90CA84E
:1008D000FFF7D3FEDDE90DB00C995D46002610B997
:1008E00009F101000D18B9EB050003D4C0F1FF3682
:1008F00009F10105A5EB09002BE0B9F1010F01DABF
:100900004FF001090020B9F1110F0090484601DDB8
:10091000112300E003460AAA01A90CA8FFF7ADFEC7
:10092000DDE90C704D4600268346207800070AD486
:10093000AB4500DA5D4601A8012D04DD411911F82F
:10094000011C302907D04F4502DA17F1040F04DAF1
:10095000012082460FE06D1EEEE7002F02DCED1B4A
:100960003E4403E0781CA84200DD7D1CB81B00F16A
:10097000010A4FF000472078000703D4AA4501DBA5
:100980004FF0FF3A0021B7F1004F0DF143088DF809
:10099000431024D002202B23002F01DA7F422D2385
:1009A0000A21021EA0F1010000DC5FB197FBF1FCFF
:1009B00097FBF1F201FB1C7C17460CF1300C08F898
:1009C00001CDEEE7A8F1010003702188090501D5EA
:1009D000452100E06521A0F1010800F8011C0998FB
:1009E0000FA9A1EB0807FF1D00B10120411901EB80
:1009F000EA70A1693844081A401EA0612078C00638
:100A000002D42046AFF30080099828B1D4E901212F
:100A10009047206A401C20622078C00622D52046DC
:100A2000AFF300801EE0002E04DBB34502DD01A819
:100A3000805D00E03020D4E901219047206A401C0D
:100A40002062761CAAF101005FEA000A0AD100F0D8
:100A5000C7FAC0680168405CD4E901219047206A68
:100A6000401C2062281EA5F10105DCDC07E0D4E96A
:100A7000012118F8010B9047206A401C2062381EA3
:100A8000A7F10107F3DC2046AFF30080032011B08B
:100A900043E6000001694A1C02610878704700B50E
:100AA0008FB0CDE901310021059105497944CDE9A7
:100AB000031011466846FFF7BDFC0FB000BD0000F3
:100AC000E5FFFFFF0A6802F8010B0A6070470000AB
:100AD0002DE9FF4F064689B00878FF2806D0491C4B
:100AE0002D2805D000244FF0000908E000200CE07C
:100AF0000124F8E709EB8903491C00EB4309087856
:100B0000FF28F7D114B1C9F1000081461078002503
:100B10002C46AA4629462D2801D02B2804D1521C48
:100B20002D2813D0002082468B461078FF280FD046
:100B30004FF0000C0A21521CA5FB017804FB018137
:100B400005FB0C11C5194BEB0104EEE70120EAE7A8
:100B5000002108464FF00000BAF1000F02D000EB70
:100B600080004008C0F38158B8F1010F01DD4FF05B
:100B7000FF380C9809EB000755EA040009D04FF044
:100B8000020917F5FA7F0BDA4FEACA70C6E900B01E
:100B900012E04FEACA70C6E900B00DB0BDE8F08FB0
:100BA000B7F5FA7F0DDDF0487844D0E90010C6E9CA
:100BB000001040EACA70706000F016FAC0F80090A9
:100BC000EBE7391E02DAC8F1000200E0424600DA23
:100BD000794206A800F054FC06AB93E8070003AB8B
:100BE00083E8070044F23E005BEA040100905846A7
:100BF00004D144F21E012C465D460091210C0904EB
:100C0000014306D10099240444EA15442D04103907
:100C1000009104F07F41014306D10099240244EA87
:100C200015642D020839009104F07041014306D18A
:100C30000099240144EA15742D01091F009104F064
:100C40004041014306D10099A40044EA9574AD00E7
:100C5000891E009104F00041084304D100986D19E9
:100C60006441401E009042466846002FCDE9014590
:100C700003A902DD01F011FA01E001F0E6F9BAF191
:100C8000000F04460D4601D084F0004440F2FF7787
:100C900024F00040284303D0C4F30A50B84212D1D4
:100CA00000F0A2F9C0F80090C4F30A50B8420AD18B
:100CB000AE487844D0E90010C6E9001004F00041C5
:100CC0000843706069E7C6E9005466E72DE9FF4F05
:100CD0001F464FF0000A4FF0FF38454691B0D7E964
:100CE0000146CDF83CA000F07BF9C0680168405C8B
:100CF0001090B96912986D1C8847396A81468847F7
:100D00000028F6D1B9F1FF3F0AD0002E24F4D064B8
:100D100011DDB9F12B0F08D0B9F12D0F0BD102E085
:100D2000404615B03AE744F48064B96912986D1CE6
:100D30008847761E8146600504A901D52D2000E074
:100D40002B20002E01F1010B0DF130088DF8100061
:100D50003FDDB9F1690F08D0B9F1490F05D0B9F1FC
:100D60006E0F02D0B9F14E0F1CD13B4601A8009581
:100D700080E85002DDE912126FF0020006F00CFF6D
:100D8000C11CCED10EE0B96912986D1C884781460E
:100D90001398761E44F4007405600F98401C002ED2
:100DA0000F9016DDB9F1300FEDD0B9F1780F02D008
:100DB000B9F1580F0DD10F9801280AD13B46CDE962
:100DC0000054DDE91212001F029606F0E3FEC11C7A
:100DD000A7D1109989453ED144F0800406E01399CB
:100DE000681CAAF1010A44F400740860B9696D1C1A
:100DF0001298761E884730288146F0D02BE0109953
:100E0000894505D1200603D4761E44F0800418E0FD
:100E1000484605F043FE08B3761E0DF123018B45CD
:100E200044F4007408D2A9F130000BF8010B20063D
:100E300007D5AAF1010003E0200602D40AF101005F
:100E40008246A00502D51399681C0860B9691298FA
:100E50006D1C88478146002ED1DC53E0002E51DD09
:100E6000B9F1650F02D0B9F1450F4BD1A00549D5B5
:100E7000B9696D1C1298761E24F440748847002EC0
:100E800081460CDD2B2804D0B9F12D0F07D144F495
:100E90008074B96912986D1C8847761E8146E005FA
:100EA00001D52D2100E02B2108F8011BCDF8008091
:100EB00021E0761E0DF13901884544F400740CD20E
:100EC000A9F1300010F0FF0088F8000002D100996D
:100ED000884509D908F1010806E0E00501D5244854
:100EE00001E042F20F708246B96912986D1C884782
:100EF000814613980560002E04DD484605F0CEFDBE
:100F00000028D6D1F96912988847FF2053468BF8FC
:100F1000000088F8000000200A900B9004AA0CA999
:100F20000AA8FFF7D5FDA00502D46FF00100F8E68E
:100F300014F0240F0AD0E00714D13868DDE90A1252
:100F4000031D3B600068C0E900120BE00AA9684677
:100F500005F03EFDE00705D13868009A011D3960B3
:100F6000006802602846DCE6607A000056790000DE
:100F7000F1D8FFFF026811441378016018467047EA
:100F8000D1600549794451610449794411620021D5
:100F90001161114600F0BAB8EDFFFFFFED0000004F
:100FA000426842B1016811F8013B23B1521EC0E909
:100FB0000012184670470121C160881E70474268C0
:100FC0005AB1C368016843B983688B4205D0491E92
:100FD000521CC0E90012002070474FF0FF307047EC
:100FE000004870479C100020004870477C1000208B
:100FF00030B5B0F10A024FEA900E71F100034EEAEB
:10100000817EB0EB0E0061EB91014FEA101E4EEABB
:10101000017E10EB0E0041EB11114FEA102E4EEA4B
:10102000016E10EB0E0041EB11214FEA104E4EEA1B
:10103000014E10EB0E0041EB1141401841F100014F
:101040004FEAD00040EA41704FEAD10110EB800531
:101050004FEA810444EA907444EB01046D1944EBB7
:101060000404521BA3414FF0000348BF0A3200D5CD
:1010700030BD401C41F1000130BD10B5044600F008
:1010800097FA0068005D00F0010010BD2DE9F04105
:101090001F46044603260168072A01F4006004DBAA
:1010A00008B116A505E016A503E008B115A500E0F6
:1010B00015A521F010002060A069C01EA0610FB12D
:1010C000401EA0612046AFF300804FB1D4E901215A
:1010D00038469047206A401C2062C01C206206E00F
:1010E000206AFAE7D4E9012115F8010B9047761E32
:1010F000F8D22046AFF30080BDE8F0814E414E00AB
:101100006E616E00494E4600696E66002DE9F34F30
:101110004FF0000A0C4656468DB001200C9001F1AC
:101120000C000B9062690B980121904705002DD0AF
:10113000252D2CD0216A8847C0B162690B98012106
:101140009047216A88470028F7D16269411E0B98B1
:10115000904700E0761CA1690D988847216A88476E
:101160000028F7D1E1690D988847DBE7A1690D9860
:101170008847A842074601D1761CD3E7E1690D985C
:1011800088477F1C02D1BAF1000F6FD06BE1626912
:101190000B9800273D46394690472A2804D16269BA
:1011A0000B98012190470125DFF8D08262690B98E6
:1011B00001219047A0F130010A290AD24745E5DC18
:1011C00007EB870100EB4107303FDFD445F0100506
:1011D000ECE7E90601D46FF000476C280AD04C28F0
:1011E00014D0682815D06A280DD074281CD07A280D
:1011F0001AD01DE062690B98012190476C2802D03B
:1012000045F0040514E045F002050DE045F0200529
:101210000AE062690B9801219047682802D045F0E6
:10122000080505E045F4006562690B9801219047C7
:10123000C4E9015765283DD019DC58287AD00CDC68
:10124000452837D004DC252826D041289ED131E01E
:1012500046282FD0472899D12CE05B2877D06128E9
:1012600028D063287CD0642823D15AE0F6E06F2888
:1012700048D008DC66281DD067281BD0692821D0FB
:101280006E2816D127E0702845D0732868D07528BD
:1012900047D078280DD14DE0A1690D9888472528C1
:1012A00005463FF469AFE1690D9888476D1C3FF42E
:1012B0006AAFD8E00D9923466A466FF0010006F048
:1012C00067FCC5E045F0400023464FF00002606037
:1012D000A80736D43EE0E8077FF447AF2068011D39
:1012E00021600068290501D506701BE7290701D593
:1012F000068017E7A90703D5F117C0E9006111E7D8
:1013000006600FE745F0400023464FF0080260609A
:10131000A80716D41EE040F60E0125EA0100606021
:1013200016E045F0400023464FF00A026060A8072F
:1013300007D40FE045F040006060A80708D52346B9
:1013400010220D996FF00100AFF3008080E007E0FC
:10135000102223460D996FF00100AFF3008077E073
:101360004FF0000963284F46C8464B46CB4602D093
:101370005B2806D038E0E80601D40120A0600127F0
:1013800032E06269D4F80CB00B98012190475E28D6
:1013900007D14FF0010949466269D4F80CB00B98A7
:1013A0009047216939B900210A4603AB43F821204F
:1013B000491C0829FADBD8B3216949B308F10108AF
:1013C00062690B98012190475D28F4D1B9F1000FB3
:1013D00009D0002003A951F82020D24341F8202051
:1013E000401C0828F7DB03AB2069002820794FEA6E
:1013F00040701ED05B462246CDF80080CDE90197B3
:101400000D9900286FF0010020DAAFF300801FE093
:10141000C11703AA00EBD1614B1121F01F0102EBB0
:101420008302411A13680120884003431360C7E711
:1014300019E00D99224600286FF00100009702DAAA
:10144000AFF3008004E0AFF3008001E0AFF3008071
:1014500000280ADA401C06D10C9820B14FF0FF306A
:101460000FB0BDE8F08F5046FAE7E90701D10AF165
:10147000010A064400200C9054E60000CCCCCC0CB1
:101480002DE9F047814616468AB0334878440DC8A6
:101490008DE80D0030487844801C03AC0DC884E80A
:1014A0000D0041F69B300844372190FBF1F290FB90
:1014B000F1F5A5F1800501FB12041B3C02D5644245
:1014C000012000E00020DFF890A080460027FA44C9
:1014D000AAF1BE0A0DE0E00709D03246684607EBE4
:1014E00047010AEB810100F0C4FD8DE8070064109C
:1014F0007F1C002CEFD1184F7F44AC3F18E0E80769
:1015000014D007EB04100DF1180A90E80E008AE8D9
:101510000E00C068F04201D198190890324606A921
:1015200003A800F0A6FD03AB83E807006D10641C60
:10153000002DE4D132466946B8F1000F03A802D06D
:1015400000F06FFD01E000F094FDC9E90001C9F869
:1015500008200AB0BDE8F0874471000000487047D9
:101560007C1000207546FFF7F9FFAE46050069467E
:10157000534620F00700854618B020B5FEF7BCFEA4
:10158000BDE820404FF000064FF000074FF0000884
:101590004FF0000B21F00701AC46ACE8C009ACE805
:1015A000C009ACE8C009ACE8C0098D46704700002E
:1015B00010B5FFF715FD001D10BD00BFD959000083
:1015C0002DE9FF4F1F464FF03C0987B04FF0004216
:1015D000DDE9141001F10108DDF858A002EA4050DD
:1015E0000390002004908346054604460590B9699F
:1015F000461E08988847AAF1010A0290BAF1000F26
:1016000037DD02982E2815D0102100F058FA002856
:101610002ADB4FF0010B0499014316D0B9F1000FFA
:101620000BDB4A46C11700F037FA05430C43A9F11A
:10163000040905E00120059007E008B145F0010527
:1016400001200490059800B9361DB969089808F181
:1016500001088847BBF1000FAAF1010A0290CDD022
:101660000999C1F80080C9E70298702808D050286D
:1016700006D0F96908988847BBF1000F14D04FE0F5
:10168000002002900120BBF1000F049009D0B9693D
:10169000089808F101088847AAF10109B9F1000F7B
:1016A00007DCF969089888476FF001000BB0BDE8C6
:1016B000F08F2B2804D02D280CD14FF0FF30049050
:1016C000B969089808F101088847A9F10109B9F139
:1016D000000FE6DD411CE4D00A2100F0F0F90028FB
:1016E000DFDB029908F1010801EB810100EB410009
:1016F0000290B969089888470A2100F0E0F9099A30
:10170000A9F10109B9F1000FC2F8008001DD00283C
:10171000E7DAF969089888470499029800FB01669E
:1017200055EA040004D004F04041090002D006E06C
:10173000039898E0A40044EA9574AD00B61E04F046
:101740000041080002D16D196441761E159810F011
:10175000240F03D04FF00B095C4803E04FF0280939
:101760006FF07D008246564507DAAAEB06018944F0
:10177000B9F1410F01DD4FF0410901200021A9F12C
:10178000010200F089F9024628400B462140084337
:1017900001D0012100E00021501E029143F1FF31F0
:1017A00028402140084301D0012000E00020029998
:1017B000834651EA0B014FD0002108464FF000004C
:1017C000039900F4400039B100EB80004FF4400170
:1017D00000EBD07001EA60008015012802DD4FF0B7
:1017E000FF3000E013D0401C36D0029860B3BBF14C
:1017F000000F0CD14A460120002100F04DF928408D
:101800002140084301D0012000E00020E0B1012088
:101810004A46002100F040F9034640190A4661415A
:101820002D1A8C4111D3B9F1400F09DD159810F034
:10183000240F02D0AAF1340603E0AAF1170600E053
:10184000761C00254FF0004406E05B1E42F1FF329B
:1018500020EA030521EA0204CAF10100B04206DAD7
:101860001B49039808430190002000900EE0039A62
:10187000C4F3D321E80A0A43164940EA44500A4314
:101880003146CDE90002684605F0FEF8159810F0E3
:10189000240F0BD01598C00715D13868DDE9001268
:1018A000031D3B600068C0E900120CE002A8694615
:1018B00005F08EF81598C00705D13868029A011D09
:1018C0003960006802604046F0E6000002FCFFFF5D
:1018D0000000F07F0000F03F2DE9FF4F92461D46CB
:1018E00085B04FF00041DDE9124BDDE914727F1E37
:1018F00001EA4B50414940F0FF4940EA010800210C
:1019000022F020004928049102D04E2828D04CE033
:101910003BA0012607C88DE80700A9690698641C4A
:1019200088477F1E014606D41DF8060018B121F035
:10193000200181420BD0E96906988847032E34D0F4
:10194000082E32D06FF0010009B0BDE8F08F761C90
:10195000032E01D0082EE0D1601CCAF80000DCE79D
:10196000A9690698641C88477F1E2AD420F02000AD
:10197000412826D1A9690698641C88477F1E20D477
:1019800020F020004E281CD1A9690698641C8847C5
:101990007F1E48F4002849F48009CAF8004001D4A9
:1019A000282806D0E969069888475FEACB7012D0EC
:1019B00022E0A9690698641C88477F1E01D400288C
:1019C00003DAE96906988847BCE72928F1D1641C45
:1019D000CAF80040E9E71BF0240F07D028680499F3
:1019E000031D2B600068C0E9001805E02868021D8F
:1019F0002A600068C0F800902046A5E70000F07F4C
:101A0000494E46494E495459000000000446AFF380
:101A100000802046FEF75CFC4FF0013C50F8042BA0
:101A200051F8043B9A4221D1A2EB0C03934313EAF1
:101A3000CC1317D150F8042B51F8043B9A4215D11E
:101A4000A2EB0C03934313EACC130BD150F8042BF5
:101A500051F8043B9A4209D1A2EB0C03934313EAD9
:101A6000CC13DBD04FF00000704700BFD01A01BA92
:101A7000B1FA81F101F0180122FA01F0CB40C1F175
:101A80002001DBB2C0B2C01A2CFA01F3D11A914383
:101A900011EAC311E6D17047B2F120030AD5C2F1B1
:101AA000200301FA02F120FA03F300FA02F041EAFE
:101AB0000301704700FA03F14FF0000070473A2825
:101AC00000D2303820F02002412A01D3A2F13700A1
:101AD000884201D34FF0FF307047000001491820C1
:101AE000ABBEFEE72600020070475FEA400C08BF6D
:101AF00091F0000F4FEA8C234FEAC12243EA515183
:101B00004FEA1C5018BF00F5F0404FEA300018BFF4
:101B100041F000415FEA6C5C00F02980BCF1FF3FBE
:101B200008BF40F080407047130C06BF12044FF00E
:101B3000100C4FF0000C130E04BF12020CF1080C35
:101B4000130F04BF12010CF1040C930F04BF920099
:101B50000CF1020CD30F04BF52000CF1010C114622
:101B60004FF00002A0F11F00A0EB0C00704711F035
:101B7000004F08BF704731F000413FF4D5AF0B0C68
:101B800006BF09044FF0100C4FF0000C0B0E04BF01
:101B900009020CF1080C0B0F04BF09010CF1040C35
:101BA0008B0F04BF89000CF1020CCB0F04BF49005E
:101BB0000CF1010CCCF12003A0EB0C0022FA03F392
:101BC00002FA0CF241EA030100F10100704720F033
:101BD0007F4C80EA030023F07F47ACEB070303F55B
:101BE0007C5300F0004003F1FF032DE980494FEAE8
:101BF000154B09B44FEA144325EA0B4E24EA034877
:101C00000FF2042606EB132749083E785FEA3202FA
:101C100003FB0667C7F5000707FB06F64FEA5437D4
:101C20004FEAD64606F1020607FB066CCCF1005CD3
:101C30004FEA1C472CEA074C07FB06F40CFB06F5A1
:101C400004EB15464FEA961634BF00204FF00040D3
:101C50004FEAD13706FB07FC4FEA1C4C0CFB0BF795
:101C6000D21B03FB0CF761EB07010CFB0EF7B0EB8B
:101C7000074072EB17420CFB08F734BFA2EB074298
:101C8000B2EB074261EB17414FEA0C444FEA910770
:101C900006FB07FC4FEA1C4C0CFB0BF7B0EBC740F4
:101CA00072EB573203FB0CF734BFA2EBC742B2EB27
:101CB000C74261EB57310CFB0EF7B0EBC70072EB7C
:101CC00057720CFB08F734BFA2EBC702B2EBC70296
:101CD00061EB5771039F4FEA816141EA921104EB76
:101CE000CC044FEAD1374FEA826206FB07FC42EA96
:101CF00090124FEA80604FEA1C4C0CFB0BF7D21B92
:101D000003FB0CF761EB07010CFB0EF7B0EB074090
:101D100072EB17420CFB08F734BFA2EB0742B2EBA1
:101D2000074261EB17414FEA8C554FEA910704EBEC
:101D30009C2406FB07FC4FEA1C4C0CFB0BF7B0EB9A
:101D4000C74072EB573203FB0CF734BFA2EBC7421C
:101D5000B2EBC74261EB57310CFB0EF7B0EBC7009B
:101D600072EB57720CFB08F734BFA2EBC702B2EB61
:101D7000C70261EB577115EB4C254FEA816141EACF
:101D800092114FEA82624FEAD13742EA901206FB83
:101D900007FC44F100044FEA80604FEA1C4C0CFB46
:101DA0000BF7D21B03FB0CF761EB07010CFB0EF7E3
:101DB000B0EB074072EB17420CFB08F734BFA2EB05
:101DC0000742B2EB074261EB174115EB1C154FEAD6
:101DD000813141EA92414FEA823242EA90424FEA2F
:101DE00080304FEA0C7644F1000448EA03434EEA9F
:101DF0000B484FF0000EB2EB080C71EB030724BF49
:101E0000624639464EEB0E0E4FF0000B0018524161
:101E100049414BEB0B0BB2EB080C71EB03077BF169
:101E2000000B24BF624639464EEB0E0E4FF0000BFE
:101E30000018524149414BEB0B0BB2EB080C71EB14
:101E400003077BF1000B24BF624639464EEB0E0EB2
:101E500051EA020718BF46F0010616EB0E7655F15F
:101E6000000254F1000103D5BDE88901BDE80088F6
:101E7000BDE88901BDE80048B619524141EB0101B6
:101E8000A3F10103704780807F7E7D7C7B7A797827
:101E9000777676757473727171706F6E6E6D6C6C2F
:101EA0006B6A6A69686867666665646463636261D1
:101EB0006160605F5F5E5E5D5D5C5C5B5B5A5A5952
:101EC00059585857575656555555545453535252BE
:101ED0005251515050504F4F4F4E4E4D4D4D4C4C16
:101EE0004C4B4B4B4A4A4A4949494848484747475F
:101EF000474646464545454444444443434343429C
:101F0000424242414141000046EA0646A3F5705371
:101F10004FEA164646EA42564FEAD22242EA415278
:101F200010B54FEAD121A3F1010300F017F820F01A
:101F3000004000F1010C00F0004701EB0050114699
:101F4000BCF5006F40EA070000D210BD02484FF018
:101F5000000140EA070010BD0000F07F002B26D4EE
:101F6000770021D01CB54FEA370703B44FF01000BB
:101F70004FF010014FF000000FBCBDE810400BF116
:101F8000010BBBF1010F08BF5FEA170722BF12F177
:101F9000010211F101014FF0004143F1000300F093
:101FA000004043EA00007047F9D35708DAE746EAF1
:101FB000064613F1400F4FEA16461FDD13F1200FBE
:101FC000DFBF16430A46002120335B42C8D0C3F16D
:101FD000200746EA064602FA07F74FEA164646EA9F
:101FE0000706C3F1200722FA03F201FA07F721FAE4
:101FF00003F14FF0000342EA0702B1E746EA0206A6
:1020000046EA06464FEA164646EA0106BCBF46EADD
:102010000646360C4FF000034FF000024FF000016F
:102020009EE72DE9C048934630B491E8380007C8D0
:1020300031EA400C48BF34EA430C03D5FFF7C7FD33
:10204000FFF78CFFF0BCBDE800882DE9C04893463F
:1020500030B491E8380007C831EA400C48BF34EA90
:10206000430C03D5FFF7B3FDFFF74EFFF0BCBDE80F
:1020700000882DE9C048934630B491E8380007C87D
:1020800010F0804F08BF13F0804F03D100F019F813
:10209000FFF764FFF0BCBDE800882DE9C048934617
:1020A00030B491E8380007C810F0804F08BF13F033
:1020B000804F03D100F005F8FFF726FFF0BCBDE824
:1020C000008820F07F4780EA030023F07F4C07EB75
:1020D0000C03A3F57C5300F00040A3F1FE0392F043
:1020E000000F00F0B38095F0000F00F077802DE92D
:1020F00001494FEA11404FEA144621EA004800FB2B
:1021000006FC24EA064708FB06F607FB08F800FB76
:1021100007F718EB06484CEB164C4FEA124B18EB3E
:1021200007484FEA15464CEB174022EA0B4E0BFBD3
:1021300006FC25EA06470EFB06F607FB0EFE0BFB28
:1021400007F71EEB064E4CEB164C4FF000061EEB4D
:10215000074E4CEB174B18EB0B0840F1000018EB47
:102160000E0B58EB000840F100008F1A4FF00001F1
:102170003CBFC943661B14BFB5EB040C00213CBF38
:10218000C943F61B4FEA17444EEA8E0E27EA044570
:102190004FEA1C4704FB07622CEA074C05FB07F7D4
:1021A0000CFB05F604FB0CFC16EB074642EB174252
:1021B00016EB0C4642EB1C421BEB060658EB0202E8
:1021C000414146EA9E0601D5BDE80189B619524152
:1021D00041EB0101A3F10103BDE801894FEA144578
:1021E0004FEA114724EA054621EA074C05FB07F4AC
:1021F00006FB07F70CFB06F105FB0CFC11EB074196
:1022000044EB17444FEA124711EB0C4144EB1C44DA
:1022100022EA074C05FB07F206FB07F70CFB06F664
:1022200005FB0CFC16EB074642EB174216EB0C467F
:1022300042EB1C456A1854F1000148BF7047B619BB
:10224000524141EB0101A3F10103704795F0000FEA
:1022500037D04FEA11424FEA144721EA024624EAF6
:10226000074C02FB07F106FB07F70CFB06F402FB29
:102270000CFC14EB074441EB17414FEA154714EBF4
:102280000C4441EB1C4125EA074C02FB07F506FB19
:1022900007F70CFB06F602FB0CFC16EB074645EBBA
:1022A000174516EB0C4645EB1C42121951F1000183
:1022B00048BF7047B619524141EB0101A3F1010338
:1022C00070474FEA14454FEA114724EA054621EAD0
:1022D000074C05FB07F106FB07F70CFB06F24FF076
:1022E000000605FB0CFC12EB074241EB174112EB19
:1022F0000C4251EB1C4148BF7047921841EB010161
:10230000A3F10103704710B5022326220621002005
:1023100002F088FD02234B220021482002F082FDBA
:1023200002234B221946482002F07CFD02234B2257
:102330000421482002F076FD02234B22062148208A
:1023400002F070FD022356220021782002F06AFD7F
:10235000022356221946782002F064FD02235622F9
:102360000421782002F05EFD022325220621782038
:1023700002F058FD0C220021082002F02FFD0D2252
:102380000021182002F02AFD0E220221082002F06E
:1023900025FD02221146182002F020FD0F22042103
:1023A000082002F01BFD10220421182002F016FD67
:1023B0000E220621082002F011FD02220621BDE8AE
:1023C0001040182002F00ABDFEE710B5846A2046CE
:1023D00000F06AF90120207110BD10B5846A204612
:1023E00000F084F80120207110BD10B5846A2069C6
:1023F00040F004002061204600F058F901202071CF
:1024000010BD10B5846A206940F0040020612046A8
:1024100000F06EF80120207110BD10B5806A00F048
:1024200044F910BD10B5806A00F061F810BD0000DD
:10243000014800F0ACBA00009C0200200D4902687F
:102440008A4201D20C4901E00B492031D2B2142357
:10245000083AB2FBF3F2436C02F01F0223F00303CD
:102460001944816404498031C164012191400165AE
:102470007047000008040240000802400179074A42
:1024800002EB81024265054A4432491E826501F031
:102490001F0201219140C16570470000FC08024005
:1024A00030B5D0E913456560446D14B1D0E91645E7
:1024B000656090F8444004F01F050124AC40056CB1
:1024C0006C60046863608368102B036803D09960B4
:1024D0000068C26030BD9A600068C16030BD70475E
:1024E0004FF4005000F06ABB72B6FEE770477047C9
:1024F000704700002DE9F0470446407990460D46AC
:1025000001280BD04FF0010984F8059002202071BA
:10251000A96808F01006042903D045E00220BDE8B0
:10252000F08700F085FC07465FEA08004FF00308DB
:1025300005D01CE000F07CFCC01B01280FD82068EF
:10254000406B0004F6D4012000F024FB2168686A87
:10255000086416E000F06CFCC01B012807D9206954
:1025600040F00800206184F804800320D7E7206849
:10257000406B0028EEDB012000F00CFB2168686A4C
:1025800048642068816C40F2FF32B2409143AA6AED
:10259000B240114381642068C16CFF22B240914374
:1025A000EA6AB2401143C164E869012808D122688F
:1025B000916B1F20B0408143286AB040084390636C
:1025C0002068C06B0721B1408843A969012903D065
:1025D000022955D06969E9B300216B69AA681A43D9
:1025E0000A434FF4807101FA06F398432B79012BCB
:1025F00000D0002111434FF4007202FA06F3984311
:102600006B79012B00D0002220F44047286842EA71
:102610000108022836D00743216808FA06F038433B
:10262000C863206801684FF48042B2409143016062
:102630002268116840F6FE70B0408143E868B040FF
:102640000843106020680168C022B24091430160D5
:10265000287B00E014E0297C2268C0F3830001F0AD
:102660003C0140EA8110116E40F60F73B34099436C
:10267000B0400143116684F80490002060714EE779
:102680000121AAE700F0F8FF0549884202D947F482
:102690000047C1E703498842BED947F48047BBE7FA
:1026A0000068890900B4C40470477047704770B56A
:1026B000040003D02079002510B105E0012070BD91
:1026C0006571204600F008F8022020712561012084
:1026D0002071002070BD000038B505460068134920
:1026E000884222D11248C16C41F40021C164C06CFF
:1026F000114C00F4002000900E48206068206060BB
:102700001020A06000208021C4E9030189006161DC
:102710004900A1612021C4E90710204600F094F986
:1027200008B1FFF7E1FEAC60A56238BD00140050AF
:1027300000100240080002409C0200202DE9F041F8
:1027400004460D461746617900220698012920D0DB
:102750000126667102212171F5B1D4F80CC0384907
:10276000CCF82C10D4F80CC03649CCF83010D4F882
:102770000CC03549CCF834102168D1F800C04CF0B9
:10278000805CC1F800C090B3042834D0082837D149
:1027900034E00220BDE8F081D4F808C02B49CCF821
:1027A0002C10D4F808C02A49CCF83010D4F808C04E
:1027B0002849CCF834102168D1F800C04CF4805C72
:1027C000C1F800C020B1042805D0082808D105E0D0
:1027D0002268083204E022680C3201E022681032DC
:1027E0002068016841F400510160A0680EE0FFE735
:1027F0002268143204E02268183201E022681C3298
:102800002068016841F000510160E068394600F03D
:102810007BF907004FF00000607105D0206940F09F
:10282000040020613846B5E72068016805F0100211
:10283000964031430160012000F0ACF9F2E700005E
:10284000DB2300082524000803240008CB2300080C
:102850001B240008EB23000870B5044600680D46F1
:10286000026801F010014FF480538B409A430260DC
:1028700020680268012606FA01F18A4302603046A8
:1028800000F088F955B1E06800F010F820680168A0
:1028900021F0005101602671002070BDA06800F099
:1028A00005F82068016821F40051F3E710B590F8AD
:1028B000253000210122022B03D00421C163012114
:1028C00022E003681C6824F00E041C60836C1C6802
:1028D00024F480741C6003681C6824F001041C60EC
:1028E00090F84430046C03F01F0302FA03F36360B2
:1028F000D0E913345C60436D33B11C6824F48074F8
:102900001C60D0E916345C6080F82520002280F835
:102910002420084610BD70B590F825200024012120
:102920002346022A07D00422C26380F8251080F8CB
:102930002430012429E00268156825F00E05156091
:102940000268156825F001051560826C156825F48C
:102950008075156090F84420056C02F01F0201FAA2
:1029600002F26A60D0E913255560426D32B11568F4
:1029700025F480751560D0E91625556080F825107E
:1029800080F82430816B01B18847204670BDF0B4D7
:10299000016C0C6801680D6890F8442002F01F0675
:1029A000042202FA06F3234211D06B070FD50B68FD
:1029B0009B0603D40B6823F004030B6090F84410CB
:1029C00001F01F018A40016C4A60016B1DE0022387
:1029D00003FA06F727424FF0000C4FF0010218D01F
:1029E000AF0716D50C68A40605D40C6824F00A04B9
:1029F0000C6080F8252090F8441001F01F018B40F6
:102A0000016C4B6080F824C0C16A00291AD0F0BC68
:102A100008470823B340234214D02B0712D50B6874
:102A200023F00E030B6090F84410036C01F01F01BB
:102A300002FA01F15960C26380F8252080F824C0B1
:102A4000416BE2E7F0BC704770B504000CD02B4A34
:102A500021681420914209D2294A0A44B2FBF0F0BD
:102A60008000606427480AE0012070BD234A52427A
:102A70000A44B2FBF0F0800060642048083820640B
:102A8000022084F825000A6847F6F0708243D4E9F2
:102A900002031843D4E904352B431843A3691843B0
:102AA000E3691843236A1843104308602046FFF780
:102AB000C5FCA0680025B0F5804F00D16560A16C11
:102AC00020790860D4E9130141606068401E032842
:102AD00008D82046FFF7D2FC606D0560D4E91601E6
:102AE000416002E06565A565E565E563012084F860
:102AF000250084F82450002070BD00000804024026
:102B0000F8FFFDBF0000024070B5044690F82400B5
:102B1000002501280CD0012084F8240094F82560B9
:102B20000020012E06D084F824000225284670BD1E
:102B3000022070BD022684F82560E06320680668E4
:102B400026F0010606602046FFF7AAFC206B00284D
:102B50002068016802D041F00E0106E021F0040176
:102B600001602068016841F00A010160A06C016801
:102B7000C90303D5016841F480710160606D18B12B
:102B8000016841F4807101602068016841F0010131
:102B90000160CBE770B5044600F04AF90546601CB9
:102BA00002D004484068044400F042F9401BA042AF
:102BB000FAD370BD0000002070470000044910B532
:102BC0000A68024202D00860FFF7F6FF10BD00005D
:102BD000140401402DE9F04FDFF820920023012674
:102BE0000324A9F1040B85B00F2709F1040AABF106
:102BF000040EFAE006FA03F52A407CD091F804C0EE
:102C00000CF0030CBCF1010F02D0BCF1020F26D175
:102C1000D0F808C0CDF800C04FEA430C04FA0CF815
:102C2000CDF810C0DDF800C02CEA080CCDF800C0CB
:102C3000D1F80C80DDF810C008FA0CF8DDF800C0FF
:102C400048EA0C08C0F80880D0F804C02CEA050C4B
:102C50000D79C5F300159D4045EA0C0545600D79D9
:102C6000ED43AD070ED0C5684FEA430804FA08FCEF
:102C700025EA0C05D1F808C00CFA08FC4CEA050C52
:102C8000C0F80CC00D7905F00305022D16D1DD0842
:102C900000EB850CCDF808C0DCF820805D074FEA1A
:102CA000D56C07FA0CF528EA05080D6905FA0CF54C
:102CB000DDF808C045EA0805CCF8205005684FEA61
:102CC000430CCDF808C004FA0CFC25EA0C0591F879
:102CD00004C00CF00308DDF808C008FA0CF848EA54
:102CE0000508C0F800804D6815F4403F7CD0444D85
:102CF000D5F860C000E077E04CF0010CC5F860C08A
:102D00002D6E23F0030C05F0010500953D4D654443
:102D10000295AD684FEA837C4FEA1C7807FA08FCFD
:102D200025EA0C05B0F1904F06D0DFF8DCC0604515
:102D300005D14FF0010C20E04FF0000C1DE0DFF852
:102D4000CCC0604502D14FF0020C16E0DFF8C0C0E5
:102D5000604502D14FF0030C0FE0DFF8B8C06045CA
:102D600002D14FF0040C08E0DFF8ACC0604502D19E
:102D70004FF0050C01E04FF0060C0CFA08FC4CEA91
:102D8000050C029DC5F808C0D9F80050CC46D1F812
:102D9000048095435FEAC82800D51543CCF800505D
:102DA000DAF80050D446D1F8048095435FEA8828C9
:102DB00000D51543CCF80050DBF80050DC46D1F8C4
:102DC000048095435FEA883800D51543CCF800505D
:102DD000DEF80050F446D1F8048095435FEAC83825
:102DE00000D51543CCF800505B1C0A6832FA03F595
:102DF0007FF400AF05B0BDE8F08F0000080401408B
:102E00000010024000000140000400480008004893
:102E1000000C0048001000480014004800690840F9
:102E200000D0012070470AB181617047816270470C
:102E30000148806870470000000000200248816857
:102E400042681144816070470000002010B50024E2
:102E5000032000F073F8002000F008F808B1012406
:102E600001E000F025F8204610BD000070B50E4EC0
:102E700005460024706898B14FF47A71B1FBF0F008
:102E80000A490968B1FBF0F000F06AFE40B9102D64
:102E900006D200222946501E00F030F8356000E0CE
:102EA0000124204670BD0000000000200C0000201E
:102EB0000A4882B0016E41F001010166016E01F025
:102EC00001010091816D41F080518165806D00F0BC
:102ED0008050009002B000F059B90000001002408C
:102EE000002809DB00F01F02012191404009800009
:102EF00000F1E020C0F8001170470000F0B40E4B64
:102F00001B680C46C3F30223C3F10705042D00D947
:102F10000425191D072901D2002300E0DB1E01262C
:102F200006FA05F1491E214099409E40761E164042
:102F30003143F0BC03F04CB80CED00E0064900F062
:102F4000070208684FF6FF03184040EA0220034AD0
:102F500010430860704700000CED00E00000FA0527
:102F6000F8B504004FF0000514D094F83A00052895
:102F700010D094F83A0002280CD03448016E41F089
:102F800001010166006E00F00100009094F83A0023
:102F900010B104E00120F8BD002084F8390020467B
:102FA00000F058F8A0682A4A4FF48071402836D0C3
:102FB000602834D020680368E66A23F010033343A6
:102FC0000360D4E901031843D4E9033633431843BB
:102FD000237D012B00D000210843616A0843A16AC8
:102FE0000843218E40EAC14094F8341040EA016160
:102FF0002068036813401943016020688169002933
:1030000009DBD4E906121143226A836923F03F03E6
:103010001A431143816194F83A0090B114E020689A
:103020000368E66A23F0100333430360D4E9010325
:103030001843267D2369012E00D000210B4318433D
:10304000CBE7012084F83A002846F8BD0010024082
:10305000113E00E010B586B0044614216846FDF725
:10306000D6FA0D492068884213D10C48C16C41F052
:103070000201C164C06C694600F0020005904FF483
:103080008050009003200190002002900448FFF738
:10309000A1FD06B010BD00000C030140001002406D
:1030A00000040048002138B190F83A20052A03D0E6
:1030B00090F83A20012A02D00121084670470268A0
:1030C000136843F001031360042280F83A20F4E708
:1030D0002B492C4B0A6832214A432B4940B1B0F5A9
:1030E000007F086829D020F4C06040F480602CE0A4
:1030F0000868C0F34120022804D051F8800F20F462
:10310000807022E0D1F8800020F48070C1F8800047
:10311000086820F4C06040F400700860B2FBF3F06F
:10312000401C00E0401E4A69520501D50028F9D133
:10313000486940050AD503207047C0F341200228A2
:1031400006D051F8800F40F480700860002070476E
:10315000D1F8800040F48070C1F88000086820F445
:10316000C06040F400700860B2FBF3F0401C00E067
:10317000401E4A695205DBD50028F9D1D8E7000086
:103180000C00002040420F0000700040024881689F
:1031900041F4804181607047007000402DE9F843A0
:1031A000044600680026BB4D00035ED5A86D0027CD
:1031B000C00008D4A86D40F08050A865A86D012714
:1031C00000F080500090DFF8D092D9F8001041F460
:1031D0008071C9F80010FFF72BFE804606E000BFA3
:1031E000FFF726FEA0EB080002282BD8D9F8000034
:1031F000C005F5D5D5F8900010F4407014D0216DBD
:10320000814211D0D5F89000D5F8901020F440708C
:1032100041F48031C5F89010D5F8901021F4803138
:10322000C5F89010C5F89000C00711D0FFF700FE58
:10323000804641F2883907E0FFF7FAFDA0EB08016C
:10324000494501D903260BE0D5F890008007F3D556
:10325000D5F89000216D20F440700843C5F8900027
:103260001FB1A86D20F08050A8652078C00707D056
:10327000D5F88800616820F003000843C5F888008D
:103280002078800707D5D5F88800A16820F00C00C9
:103290000843C5F888002078400707D5D5F888008E
:1032A000E16820F030000843C5F888002078000766
:1032B00007D5D5F88800216920F0C0000843C5F87B
:1032C00088002078C00607D5D5F88800616920F409
:1032D00040700843C5F888002078800607D5D5F8E7
:1032E0008800A16920F440600843C5F88800207870
:1032F000400607D5D5F88800E16920F4405008431E
:10330000C5F888002078000607D5D5F88800216A1E
:1033100020F440400843C5F888002088C00507D540
:10332000D5F88800616A20F440300843C5F8880069
:103330002068800307D5D5F89C00A16A20F003001F
:103340000843C5F89C002088800507D5D5F888007B
:10335000E16A20F440200843C5F888002088400531
:103360000FD5D5F88800216B20F440100843C5F82C
:103370008800206BB0F5801F03D1E86840F480100E
:10338000E860208800050FD5D5F88800616B20F42F
:1033900040000843C5F88800606BB0F5800F03D18A
:1033A000E86840F48010E8602088C0040FD5D5F8A4
:1033B0008800A16B20F040700843C5F88800A06B1E
:1033C000B0F1807F03D1E86840F48010E860208885
:1033D0004FF0006180040ED5D5F88800E26B20F034
:1033E00040601043C5F88800E06B884203D1E8686C
:1033F00040F48010E860208840040ED5D5F888009D
:10340000226C20F040601043C5F88800206C884290
:1034100003D1E86840F48010E860208800040FD5EC
:10342000D5F88800616C20F040500843C5F888004A
:10343000606CB0F1805F03D1E86840F48030E860F0
:103440002068C0030FD5D5F88800A16C20F040405B
:103450000843C5F88800A06CB0F1804F03D1E8683C
:1034600040F48030E860206840030FD5D5F89C0018
:10347000E16C20F440100843C5F89C00E06CB0F506
:10348000001F03D1E86840F48010E8603046BDE8D2
:10349000F883000000100240007000402DE9F04762
:1034A0000E4605004FF0000725D0DFF8AC81D8F8B4
:1034B000000000F00F00B0420CD2D8F8001021F04C
:1034C0000F013143C8F80010D8F8000000F00F00D9
:1034D000B04210D12968614CC80741F2883A5AD0ED
:1034E0006868DFF87C91032808D0022820682DD076
:1034F000400500282CDB0120BDE8F0872068800112
:10350000F9D5E06800F00302E068C0F30310401C46
:10351000032A19D0534A00BFB2FBF0F0E268C2F3AD
:1035200006225043E268C2F34162521C5200B0FBD3
:10353000F2F0484517D9A06810F0F00F0CD08807BA
:1035400011D5A86840B10EE0474AE5E78003D0E70F
:1035500000F0BCF8484506D9A06820F0F00040F023
:103560008000A0608027A068696820F003000843FD
:10357000A060FFF75DFC814606E000BFFFF758FC46
:10358000A0EB090151453AD8A068696800F00C0029
:10359000B0EB810FF2D12868810714D5400703D51D
:1035A000A06840F4E060A0602878000705D5A06816
:1035B00020F4605040F4E060A060A068A96820F0AA
:1035C000F000084304E0802F03D1A06820F0F00051
:1035D000A060D8F80010404601F00F01B14216D9A2
:1035E000016821F00F0131430160FFF721FC07461C
:1035F00007E000BFFFF71CFCC11B514501D90320A8
:103600007AE7D8F8000000F00F00B042F2D1287835
:10361000400705D5A068E96820F4E0600843A06091
:103620002878000706D5A068296920F4605040EA90
:10363000C100A06000F04AF8A1680C4AC1F3031170
:10364000515C01F01F01C840094908600948006841
:10365000BDE8F047FFF70ABC00200240001002401E
:1036600000B4C4040024F40000366E01F47B0008AA
:103670000C00002000000020014800687047000096
:103680000C0000200548064900688968054AC1F316
:103690000221515C01F01F01C84070470C0000205E
:1036A00000100240047C000805480649006889684B
:1036B000054AC1F3C221515C01F01F01C8407047A7
:1036C0000C00002000100240047C0008184910B5CE
:1036D0008868C0F381021748012A0BD08A68164B0C
:1036E000C2F38102022A06D08A68C2F38102032A49
:1036F00003D0002010BD184610BDCA6802F00304B4
:10370000CA68C2F30312521C032C02D0B0FBF2F0C1
:1037100001E0B3FBF2F0CA68C968C2F30622504365
:10372000C1F34161491C4900B0FBF1F010BD00003C
:10373000001002400024F40000366E012DE9F84329
:1037400004007AD02078FA4DC00747D0A868E9680D
:1037500000F00C0001F003010C2802D0082817D05B
:1037600001E0032914D06068B0F5803F17D0B0F5B0
:10377000A02F286817D020F480302860286820F413
:10378000802028606068E0B1FFF752FB064614E035
:103790002868800322D560680028D2D01EE02868FF
:1037A00040F48030EDE740F480202860F7E700BF68
:1037B000FFF73EFB801B642870D828688003F7D58C
:1037C0000CE0FFF735FB064605E000BFFFF730FBD6
:1037D000801B6428F0D828688003F7D420788007FD
:1037E0004CD5A868E96800F00C0001F003010C2832
:1037F00002D004280DD001E002290AD0E068002898
:1038000028682BD040F480702860FFF711FB064633
:1038100019E02868400502D5E068002891D0686862
:10382000217C20F0FE4040EA01606860C1480068E9
:10383000FFF71CFB002800D120E076E1FFF7F8FA43
:10384000801B0228B8D828684005F7D56868217C15
:1038500020F0FE4040EA016068600FE020F48070D4
:103860002860FFF7E5FA064605E000BFFFF7E0FA3B
:10387000801B0228A0D828684005F7D420780007CC
:1038800029D560690028D5F8940013D040F00100D4
:10389000C5F89400FFF7CCFA064606E090E000BFBA
:1038A000FFF7C6FA801B022886D8D5F89400800757
:1038B000F6D510E020F00100C5F89400FFF7B8FA43
:1038C000064604E0FFF7B4FA801B022878D8D5F842
:1038D00094008007F6D42078400761D5A86D0026B3
:1038E000C00008D4A86D40F08050A865A86D0126DE
:1038F00000F08050009090480168C90511D401681B
:10390000804641F480710160FFF792FA074604E0B7
:10391000FFF78EFAC01B022852D8D8F80000C00565
:10392000F6D5A068012815D00528D5F8900016D046
:1039300020F00100C5F89000D5F8900020F00400B8
:10394000C5F89000A06841F28838B8B1FFF770FA66
:1039500007460EE0D5F8900040F00100F0E740F097
:103960000400C5F89000F5E7FFF762FAC11B414576
:1039700026D8D5F890008007F6D50CE0FFF758FA66
:10398000074604E0FFF754FAC11B414518D8D5F8A3
:1039900090008007F6D41EB1A86D20F08050A86575
:1039A0002078800629D5A0690028D5F8980013D082
:1039B00040F00100C5F89800FFF73AFA064606E025
:1039C00077E000BFFFF734FA801B022877D8D5F8DC
:1039D00098008007F6D510E020F00100C5F89800A7
:1039E000FFF726FA064604E0FFF722FA801B0228BA
:1039F00065D8D5F898008007F6D4E069F0B3A968D7
:103A0000C1F38101032961D00228286820F0807069
:103A100028600BD0E86820F00300E860E8684749B8
:103A20000840E860FFF704FA04464BE0FFF700FAAD
:103A3000064604E0FFF7FCF9801B02283FD82868FF
:103A40008001F7D4F4E908016FF00F0202EB0111D5
:103A50000843218A5204490802EB4151A26841EA15
:103A600002210843217D4FF07E42490802EB41616B
:103A70000843217B40EAC160E96800E062E0304A27
:103A800011400843E860286840F080702860E868CA
:103A900040F08070E860FFF7CBF9044605E000BF16
:103AA000FFF7C6F9001B022809D828688001F7D55E
:103AB00048E004E0FFF7BCF9001B022802D903200C
:103AC000BDE8F88328688001F4D43BE00128F7D0F2
:103AD000E868226A00F00301914226D1616A00F091
:103AE000F0020901103991421FD1A26A00F4FE418F
:103AF000B1EB022F19D194F82C2000F07841B1EBF2
:103B0000C26F12D1218E00F4C00249084905A1F507
:103B10000011914209D194F8341000F0C0604908B6
:103B20004906A1F1007181420CD00120C8E70000D4
:103B3000001002400000002000700040FFFFEEFE79
:103B40000C809F010020BBE74FF0E02104280869AA
:103B500003D020F004000861704740F00400FAE749
:103B600010B5401EB0F1807F01D3012010BD4FF091
:103B7000E02460610F21601702F02AFA0020A061A2
:103B800007202061002010BDF0B590F83C20012AEC
:103B900058D0012280F83C20CA688B6822F4407219
:103BA0001A434B6822F480621A430B6822F40062C5
:103BB0001A430B6922F480521A434B6922F40052D3
:103BC0001A430B6B22F480421A430B8B22F47022AF
:103BD00042EA03421C4C036800271C4D1C4EA342C2
:103BE00003D0AB4201D0B34205D1D1F81CC022F0C2
:103BF000805242EA0C02A34203D0AB4201D0B3424E
:103C00001BD1B1F828C022F4700242EA0C52D1F85C
:103C100020C022F0807242EA0C02D1F824C022F0C7
:103C2000007242EA0C02A34203D0AB4201D0B3427D
:103C300003D1C96A22F000520A435A6480F83C70EA
:103C40000020F0BD0220F0BD002C014000340140F6
:103C500000500140F0B590F83C20012A43D00125E6
:103C600080F83C50022280F83D2003685A689C6826
:103C70001E4E1F4FDFF87CC0B34203D0BB4201D0C1
:103C8000634504D122F4700E4A6842EA0E02DFF85E
:103C900068E002EA0E02D1F800E04EEA020EC3F834
:103CA00004E00268B24212D0B2F1804F0FD0134B41
:103CB0009A420CD0124B9A4209D0124B9A4206D02B
:103CC000BA4204D0104B9A4201D0624504D18968AF
:103CD00024F080031943916080F83D50002180F862
:103CE0003C100846F0BD0220F0BD0000002C014051
:103CF00000340140005001408FFFFFFD00040040F0
:103D000000080040000C00400040014010B50400D5
:103D100003D094F83D0010B107E0012010BD002051
:103D200084F83C00204600F023F8022084F83D008F
:103D3000211D206801F012FA012084F8480084F85F
:103D40003E0084F83F0084F8400084F8410084F885
:103D5000420084F8430084F8440084F8450084F865
:103D6000460084F8470084F83D00002010BD0000A4
:103D700008B50C4A01680C48914207D1016E41F424
:103D800000610166006E00F4006009E0074A91429C
:103D900007D1816D41F010018165806D00F0100048
:103DA000009008BD002C01400010024000100040AF
:103DB00090F83D10012901D001207047022180F8C0
:103DC0003D1000681249884214D0B0F1804F11D0E4
:103DD000104988420ED0104988420BD00F498842C2
:103DE00008D00F49884205D00E49884202D00E49BA
:103DF000884207D181680D4A1140062906D0B1F5E5
:103E0000803F03D0016841F001010160002070474C
:103E1000002C01400004004000080040000C00405D
:103E20000034014000400140005001400700010003
:103E300001680A6A41F211131A4207D10A6A9B000B
:103E40001A4203D10A6822F001020A60012180F8B7
:103E50003D1000207047000070B5044690F83C000B
:103E6000002501281CD0012684F83C60022084F83B
:103E70003D0022689068334B184020F47F409060EA
:103E80000868B0F5005F2ED016DC402849D009DC68
:103E9000D0B1102818D0202816D0302849D113E0EE
:103EA000022070BD50282AD0602830D070280FD052
:103EB000B0F5805F3DD13DE010F00F0F39D1011119
:103EC000A1F58031072934D822680146104625E043
:103ED000CB68D1E90121206801F0B7F92068816839
:103EE00041F0770109E0CB68D1E90121206801F0B8
:103EF000ACF92068816841F4804181601AE0CA68A9
:103F00004968206801F076FB5021206806E0CA6805
:103F10004968206801F07FFB6021206801F0A0F96A
:103F200008E0CA684968206801F064FB4021206805
:103F3000F4E7012584F83D60002084F83C00284621
:103F400070BD000088FFCEFF10B586B00446142176
:103F50006846FCF75CFB0D492068884214D10C4888
:103F6000C16C41F00401C164C06C002100F0040088
:103F70000590012000900220CDE90101CDE9031058
:103F800069460448FEF726FE06B010BD002C01402D
:103F9000001002400008004870B5044690F83C004C
:103FA00000260D4601280BD0012084F83C000C2A85
:103FB0004AD007DC82B1042A20D0082A06D131E099
:103FC000022070BD102A53D0142A63D0012600208D
:103FD00084F83C00304670BD206801F04BF9206841
:103FE000816941F0080181612068816921F0040143
:103FF0008161206881692A69114311E0206801F01C
:104000008FF92068816941F40061816120688169CC
:1040100021F480618161206881692A6941EA022175
:104020008161D4E7206801F0CBF92068C16941F0D3
:104030000801C1612068C16921F00401C1612068E3
:10404000C1692A69114311E0206801F009FA20686A
:10405000C16941F40061C1612068C16921F48061D6
:10406000C1612068C1692A6941EA0221C161AEE7E4
:10407000206801F045FA2068016D41F008010165F2
:104080002068016D21F0040101652068016D2A6935
:10409000114311E0206801F06FFA2068016D41F4CE
:1040A000006101652068016D21F48061016520686F
:1040B000016D2A6941EA0221016588E710B5040013
:1040C00003D094F83D0010B107E0012010BD00209E
:1040D00084F83C00204600F022F8022084F83D00DD
:1040E000211D206801F03AF8012084F8480084F886
:1040F0003E0084F83F0084F8400084F8410084F8D2
:10410000420084F8430084F8440084F8450084F8B1
:10411000460084F8470084F83D00002010BD704739
:1041200070B50446022269B1042912D0082917D0BB
:104130000C291CD0102921D094F84300012824D048
:10414000012070BD94F83E000128F9D184F83E208A
:104150001DE094F83F000128F2D184F83F2016E0DA
:1041600094F840000128EBD184F840200FE094F847
:1041700041000128E4D184F8412008E094F842008D
:104180000128DDD184F8422001E084F84320012297
:10419000206801F04DF81D4920681D4A1D4B1E4D39
:1041A00088420BD0904209D0984207D01B4EB042B3
:1041B00004D01B4EB04201D0A84203D1466C46F455
:1041C000004646642068884211D0B0F1804F0ED07E
:1041D000144988420BD01449884208D013498842B8
:1041E00005D0904203D0984201D0A84207D18168FF
:1041F0000F4A1140062906D0B1F5803F03D001686F
:1042000041F001010160002070BD0000002C014060
:104210000034014000400140005001400044014092
:10422000004801400004004000080040000C00402D
:104230000700010090F88010012918D0012180F8B2
:1042400080102421C0F8841050F8641B0A680B68A1
:1042500023F001030B6022F000510022026050F8AD
:10426000643C1960202101620277104670470220E9
:1042700070477047704770B5044690F88000012879
:104280001DD0012084F880002420C4F88400206818
:104290000568026822F0010202602068826822F04C
:1042A00060620A438260204601F0C8F92068056018
:1042B0002020C4F88400002084F8800070BD022013
:1042C00070BD70B5044690F8800001281DD0012013
:1042D00084F880002420C4F88400206805680268FF
:1042E00022F0010202602068826822F060420A43E4
:1042F0008260204601F0A2F9206805602020C4F801
:104300008400002084F8800070BD022070BD7047DA
:10431000704770472DE9F04103680446D869196871
:104320009A6840F60F0528424FF0000509D186062D
:104330007ED501F0200602F080573E4378D0216FF1
:1043400027E1A94EA94F16400F40374370D0C70749
:1043500009D0CF0507D501271F62D4F88C3043F070
:104360000103C4F88C3083070AD5D30708D0276827
:1043700002233B62D4F88C3043F00403C4F88C3041
:1043800043070AD5D30708D0276804233B62D4F833
:104390008C3043F00203C4F88C3003070CD501F0D5
:1043A0002003334308D0266808233362D4F88C30C6
:1043B00043F00803C4F88C3003050BD54B0109D535
:1043C00026684FF400633362D4F88C3043F0200346
:1043D000C4F88C30D4F88C30002B3AD0800609D544
:1043E00001F0200002F08051084303D0216F09B191
:1043F00020468847D4F88C0021688968490602D491
:1044000010F0280F27D0204601F0D8F920688068E6
:1044100040061BD52068083050E8001F21F04001FD
:1044200040E80012002AF5D1E06F78B1704900E051
:1044300017E08163E06FFEF76EFA002809D0E06FA5
:10444000816B00E02046BDE8F04108472046FFF7B9
:1044500060FFBDE8F0812046FFF75BFFC4F88C5099
:10446000F7E7E76E2026012F7ED1C7067CD5CF0661
:104470007AD51020186220688068400642D5E16F26
:10448000086840680004000CE3D0B4F85C20824265
:10449000DFD9A4F85E000868006880062BD4206885
:1044A00050E8001F21F4807140E80012002AF6D184
:1044B0002068083050E8001F21F0010140E8001298
:1044C000002AF5D12068083050E8001F21F0400193
:1044D00040E80012002AF5D1C4F88860E56621683A
:1044E00051E8000F20F0100041E80002002AF6D148
:1044F000E06FFEF7DBF9B4F85C00B4F85E10401A28
:1045000081B22CE0B4F85C00B4F85E10401A81B2BD
:10451000B4F85E0000289CD000299AD0226852E8A6
:10452000000F20F4907042E80003002BF6D12E4BD0
:10453000DB432068083050E8002F1A4040E800278D
:10454000002FF6D1C4F88860E5662567226852E836
:10455000000F20F0100042E80003002BF6D12046A7
:10456000FFF787FE75E7FFE7C70209D5570207D5B2
:104570004FF4801018622046BDE8F041FFF7C8BE36
:1045800003060AD501F0800302F40002134304D0AD
:10459000616F00297FF456AF5BE7420611D54A06EA
:1045A0000FD52046016851E8002F22F0400241E873
:1045B0000023002BF6D1C0F88460456700F096F820
:1045C00047E7020206D54A0004D52046BDE8F0417F
:1045D000FFF79DBEC001C5D50029C3DA2046BDE85E
:1045E000F041FFF747BE0000010000102001000469
:1045F000A957000810B5040003D0D4F8840010B106
:1046000007E0012010BD002084F88000204600F063
:1046100027F82420C4F884002068016821F00101F3
:104620000160204601F0F4F80128EBD0A06A10B137
:10463000204601F025F82068416821F4904141604E
:104640002068816821F02A0181602068016841F0BA
:10465000010101602046BDE8104001F075B800007E
:1046600010B59CB00446142115A8FBF7D0FF5421C7
:104670006846FBF7CCFF1A49206888422ED10120FA
:104680000024CDE900046846FEF788FD08B1FDF777
:104690002BFF1448016E41F480410166016E01F464
:1046A00080411A91C16C41F00401C164C06C15A92C
:1046B00000F004001A90302015900220CDE9160475
:1046C0000720CDE918400848FEF784FA0022114679
:1046D0002520FEF713FC2520FEF702FC1CB010BDC0
:1046E0000038014000100240000800487047FEE713
:1046F00070B50D46044600F05FF8782000F020F811
:1047000000F0B0F8204600F01BF800F0ABF82846A7
:1047100000F016F800F0A6F8BDE8704000F076B89A
:1047200010B5064C012211022046FEF77CFB204604
:104730000122BDE810405102FEF775BB000400489D
:104740002DE9F0411B4C06462046216821F440210A
:104750002160216841F4802121604FF4007700221C
:104760003946FEF760FB00254FF48078300601D50E
:10477000012200E0002241462046FEF754FB70066D
:10478000060E022002F0C4F9012239462046FEF747
:104790004AFB022002F0BCF9002239462046FEF70F
:1047A00042FB022002F0B4F96D1CEDB2082DDDD3FE
:1047B000BDE8F0810004004870B5134C206820F477
:1047C00040202060206840F48020206001221502F3
:1047D00029462046FEF727FB012256023146204695
:1047E000FEF721FB042002F093F90022294620461F
:1047F000FEF719FB042002F08BF931462046BDE894
:1048000070400022FEF70FBB0004004870B5144C46
:10481000206820F440202060206840F48020206040
:104820004FF40075002229462046FEF7FCFA6E1070
:10483000002231462046FEF7F6FA042002F068F91D
:10484000012229462046FEF7EEFA01223146204693
:10485000FEF7E9FABDE87040042002F059B9000003
:10486000000400482DE9F041184C0025206820F490
:104870004020206020682060012216023146204638
:10488000FEF7D1FA012002F043F90122570239461E
:104890002046FEF7C8FA012002F03AF908E06D1C44
:1048A000EDB2FA2D04D9FFF7B1FF0120BDE8F08188
:1048B00031462046FEF7B2FA0028F0D100223946F0
:1048C0002046FEF7B0FA0020F0E7000000040048A0
:1048D00000B58DB030216846FBF799FE11491048AC
:1048E00008600846FDF7E3FE08B1FDF7FDFD002076
:1048F0001E22CDE9020202218DF804008DF8050088
:10490000CDE906100091CDE904010246694605484B
:10491000FDF7F0FD002801D0FDF7E6FD0DB000BD6C
:1049200000140050880200200D4808B5816C41F049
:1049300004018164816C01F004010091816C41F0FB
:1049400001018164806C002200F00100009011469A
:104950000B20FEF7D3FABDE808400B20FEF7C0BAE3
:104960000010024030B587B014216846FBF74FFEB7
:104970002448C16C41F00401C164C16C01F0040120
:104980000591C16C41F02001C164C16C01F02001AE
:104990000591C16C41F00201C164C16C01F00201DA
:1049A0000591C16C41F00101C164C06C164D00F06D
:1049B00001004FF440740590002221462846FEF77E
:1049C00032FA4FF4005000904FF48810019000200C
:1049D000029069460D48FEF7FDF81120CDE9004030
:1049E000012002900320039069462846FEF7F2F862
:1049F000002211462820FEF781FA2820FEF770FADF
:104A000007B030BD00100240000400480008004814
:104A10000B4810B50949016000216022C0E901126C
:104A20000C22026101758161C162FEF799FA0028CA
:104A300003D0BDE81040FDF757BD10BD0C03014089
:104A4000FC02002010B59CB0002419941A9417940D
:104A50001894149415941C210DA81694FBF7D7FDF7
:104A600034216846FBF7D3FD2D482C490160102105
:104A7000C0E9011440F2CF71C0E9031444618461BC
:104A8000FFF744F908B1FDF72FFD4FF48050179060
:104A900017A92348FFF7E0F908B1FDF725FD2048E5
:104AA000FFF70CFB08B1FDF71FFD1494159414A932
:104AB0001B481694FFF7CEF808B1FDF715FD6020EE
:104AC0000D904FF47A70CDE90E0410941194129465
:104AD00000220DA912481394FFF75EFA08B1FDF702
:104AE00003FD00944FF40050CDE90440039400030B
:104AF000CDE9084001940294069407940A940B941B
:104B0000694607480C94FFF73FF808B1FDF7ECFC45
:104B10000348FFF719FA1CB010BD0000002C01403B
:104B2000380300203EB500240E48009401940C493F
:104B30000294C0E90014A921C0E902418461FFF791
:104B4000E5F808B1FDF7D0FC2020009069460294FA
:104B50000448FFF77FF8002801D0FDF7C5FC3EBDF3
:104B60000010004084030020184810B51649016069
:104B70004FF4E1314160002181600C22C160C0E945
:104B800004128161C161016241628162FFF732FDFD
:104B900008B1FDF7A9FC00210C48FFF792FB08B112
:104BA000FDF7A2FC00210948FFF765FB08B1FDF7FE
:104BB0009BFC0648FFF73EFB002803D0BDE81040F1
:104BC000FDF792BC10BD000000380140D00300206A
:104BD000FEE700000A4A01200849526808E00B1865
:104BE00013F8013C0D2B02D10B5C0A2B04D0401CA6
:104BF0009042F4D3002070470120704760040020E9
:104C000038020020094881680968C96989060CD5FD
:104C100007490A68074B41685A54491C4160642996
:104C200003D100214160012101707047380200204A
:104C3000243801406004002003498860006801684E
:104C400041F02001016070473802002030B5054670
:104C5000FFF7C0FF002815D00C4800240C4A40681C
:104C60000AE0115D295534B12B1913F8013C0D2BC5
:104C700001D10A2907D0641C8442F2D3204601F0F6
:104C800091F9204630BD641CF8E70000380200208E
:104C900060040020FEE70020AFF3008070B50646F8
:104CA0005FF0000404F1B000C0B201F05BF9002035
:104CB00001F058F9102001F055F90025304601F0B7
:104CC00055F96D1CEDB2802DF8D3641CE4B2082CAC
:104CD000E8D370BD10B5FFF723FD642001F012FF8B
:104CE000AE2001F03FF9202001F03CF9102001F046
:104CF00039F9B02001F036F9C82001F033F900206D
:104D000001F030F9102001F02DF9402001F02AF9CE
:104D1000812001F027F9204C607801F023F9A120CF
:104D200001F020F9207808B1A62000E0A72001F0CA
:104D300019F9A82001F016F93F2001F013F9A42079
:104D400001F010F9D32001F00DF9002001F00AF96B
:104D5000D52001F007F9F02001F004F9D92001F085
:104D600001F9222001F0FEF8DA2001F0FBF8122010
:104D700001F0F8F8DB2001F0F5F8202001F0F2F85E
:104D80008D2001F0EFF8142001F0ECF8BDE81040A0
:104D9000AF2001F0E7B800001200002010B58D2010
:104DA00001F0E0F8142001F0DDF8BDE81040AF207C
:104DB00001F0D8B810B50446B031C8B201F0D2F84D
:104DC000102040EA141001F0CDF804F00F00BDE807
:104DD000104040F0010001F0C5B800002DE9F0419D
:104DE0000F46804600255401FFF7E4FF0C4E305D6E
:104DF00001F0BCF86D1CEDB2641C102DF7D37F1CC4
:104E0000F9B24046FFF7D6FF0025305D01F0AEF85D
:104E10006D1CEDB2641C102DF7D3BDE8F0810000CD
:104E2000150000202DE9F0410024203A0F4680466D
:104E3000012B21D0022B1DD1D6B2FFF7BBFF164D9F
:104E400004EB0610285C01F091F8641CE4B2082C15
:104E5000F6D37F1CF9B24046FFF7ACFF5FF00004C9
:104E600004EB06102844007A01F080F8641CE4B2D8
:104E7000082CF5D3BDE8F081D5B2FFF79BFF0749B9
:104E800005EB450001EB4005285D01F06FF8641C5F
:104E9000E4B2062CF8D3EDE7427E0008147C00084B
:104EA0007FB514460D46064653EC102B08A1684604
:104EB000FBF7ACFA00208DF80F0023466A4629461E
:104EC000304600F069F86846FBF782FB04B070BD1D
:104ED000252E316C660000007FB514460D4606464F
:104EE00053EC102B08A16846FBF790FA00208DF8D0
:104EF0000F0023466A462946304600F04DF86846C2
:104F0000FBF766FB04B070BD252E326C6600000016
:104F1000FEB5151E064605D009DA2D208DF80000D5
:104F2000554207E03022FFF77DFF0120FEBD202023
:104F30008DF8000001246A460A2008E095FBF0F78E
:104F400000FB175795FBF0F530371755641C002D03
:104F5000F4DC00201055012004EBD4750AE000BFFA
:104F6000271A12F800E012F807C002F800C002F891
:104F700007E0401CB0EB650FF2DD9DF800002D2826
:104F8000304604D0521C00F007F8601EFEBD00F051
:104F900003F82046FEBD00002DE9F04700259146AC
:104FA0008A460446012B22D0DFF8BC80022B24D194
:104FB00055E02038C7B27E2C04D90AF10100002444
:104FC00000F0FF0A51462046FFF7F4FE07EB4700CA
:104FD000002608EB4007B85D00F0C8FF761CF6B26B
:104FE000062EF8D3A41D6D1CE4B2EDB201E0DFF88B
:104FF0007C8019F805000028DBD1BDE8F087203857
:10500000C7B2782C04D90AF10100002400F0FF0A8D
:1050100051462046FFF7CEFE5FF0000606EB071173
:1050200018F8010000F0A2FF761CF6B2082EF5D3A6
:105030000AF10100C1B22046FFF7BCFE5FF0000696
:1050400006EB071101EB0800007A00F08FFF761CD9
:10505000F6B2082EF4D308346D1CE4B2EDB219F8A0
:1050600005000028CBD1C8E7427E0008147C000868
:1050700070477047FDF7E2BE10B594B0382168461E
:10508000FBF7C5FA14210EA8FBF7C1FA0020FEF7C2
:105090001FF8012000900004032406210190CDE9AF
:1050A000084102205521CDE90A1007900C900D907F
:1050B0006846FEF743FB08B172B6FEE70F20CDE964
:1050C0000E04002010901190129004210EA8FEF7FB
:1050D000E5F9002801D072B6FEE714B010BD00005B
:1050E0000248016841F470010160704788ED00E0FA
:1050F0003EB50024164A00940194012102941268DE
:105100000B0401E0491C89B2B2FBF0F5B5FBF1F5E7
:105110009D42F7D2B2FBF0F0B0FBF1F20E480D4B1E
:10512000521E0360491EC260C0E901148461FEF78B
:10513000EDFD08B1FDF7D8F92020009069460294F2
:105140000548FEF787FD002801D0FDF7CDF93EBDEB
:105150000C00002000100040840300202DE9F04FD7
:1051600002682A4B2A4E2B4FDFF8ACC02B4C2C4D3B
:105170004FF0804B98420BD0584509D0B04207D031
:10518000B84205D0604503D0A04201D0A84204D166
:1051900022F070084A6842EA0802DFF88880DFF8E7
:1051A0008890DFF888A0984211D058450FD0B042BF
:1051B0000DD0B8420BD0604509D0A04207D0404581
:1051C00005D0484503D0504501D0A84203D122F470
:1051D0004076CA6832434E6922F080023243026050
:1051E0008A68C2620A688262984209D0A04207D0E7
:1051F000404505D0484503D0504501D0A84201D1D3
:105200000969016301214161BDE8F08F002C014073
:105210000004004000080040000C00400034014041
:10522000005001400040014000440140004801405E
:1052300010B501F01F030121046A99408C430462F8
:10524000016A9A401143016210BD10B5846842EAB8
:10525000032224F47F440A432243826010BD0000ED
:105260008268034B1A400A4342F00701816070478D
:105270008FFFCFFF2DE9F047026A22F001020262A0
:10528000056A436882691F4C25F0020522400C68BC
:1052900022F0030214438A681C4E2A431A4D1C4F05
:1052A000DFF870C0DFF87090DFF870A0A84209D076
:1052B000B04207D0B84205D0604503D0484501D080
:1052C000504506D122F00808CA6842EA080222F0D6
:1052D0000402A84209D0B04207D0B84205D06045C8
:1052E00003D0484501D0504505D14D6923F44073A2
:1052F0001D438B692B4343608461496841630262AB
:10530000BDE8F0878FFFFEFF002C01400034014014
:10531000004001400044014000480140005001406D
:10532000F0B5026A22F010020262056A42688369DF
:105330001C4C1E4E23400C6823F4407343EA0424A3
:1053400025F020038D681A4F43EA0513164DA84235
:1053500003D0B04201D0B84207D1D1F80CC023F03D
:10536000800343EA0C1323F04003A8420CD0B04260
:105370000AD0104DA84207D00F4DA84204D00F4DBF
:10538000A84201D0B84207D14D6922F4406242EAF6
:1053900085028D6942EA85024260846149688163C1
:1053A0000362F0BDFF8FFFFE002C0140003401407E
:1053B00000500140004001400044014000480140CD
:1053C000F0B5026A22F480720262056A4268C3691B
:1053D0001C4C1E4E23400C6823F003031C4325F491
:1053E00000738D681A4F43EA0523174DA84203D076
:1053F000B04201D0B84207D1D1F80CC023F4006309
:1054000043EA0C2323F48063A8420CD0B0420AD0B4
:10541000104DA84207D0104DA84204D00F4DA8420D
:1054200001D0B84207D14D6922F4405242EA051238
:105430008D6942EA05124260C4614968C163036232
:10544000F0BD00008FFFFEFF002C01400034014042
:10545000005001400040014000440140004801402C
:10546000F0B5026A22F480520262056A4268C3699A
:105470001C4C1E4E23400C6823F4407343EA042462
:1054800025F400538D681A4F43EA0533164DA842A0
:1054900003D0B04201D0B84207D1D1F80CC023F4F8
:1054A000004343EA0C3323F48043A8420CD0B042BB
:1054B0000AD0104DA84207D00F4DA84204D00F4D7E
:1054C000A84201D0B84207D14D6922F4404242EAD5
:1054D00085128D6942EA85124260C461496801649F
:1054E0000362F0BDFF8FFFFE002C0140003401403D
:1054F000005001400040014000440140004801408C
:1055000030B5026A22F480320262046A4268036D96
:10551000124D2B400D681D4324F400330C8943EADF
:1055200004430F4CA0420ED00E4CA0420BD00E4CA8
:10553000A04208D00D4CA04205D00D4CA04202D094
:105540000C4CA04204D14C6922F4803242EA04227D
:105550004260056549688164036230BD8FFFFEFFCC
:10556000002C014000340140004001400044014053
:10557000004801400050014030B5026A22F4801218
:105580000262046A4268036D134D24F400142B4038
:105590000D6843EA05230D8944EA05540F4DA842DE
:1055A0000ED00F4DA8420BD00E4DA84208D00E4D84
:1055B000A84205D00D4DA84202D00D4DA84204D1FD
:1055C0004D6922F4802242EA8522426003654968DF
:1055D000C164046230BD0000FF8FFFFE002C01405B
:1055E00000340140004001400044014000480140B7
:1055F0000050014010B5036A046A24F001040462FB
:10560000846924F0F00444EA021423F00A020A43F5
:105610008461026210BD10B5036A23F010030362B7
:105620008369046A23F4704343EA023224F0A0033E
:1056300043EA01118261016210BD000030B5416E84
:10564000B9B1026891689268C1F342610B4B520F85
:105650009C5CE50003F10804A25CB5FBF2F2A0F843
:105660006A205A5C615CD200B2FBF1F1A0F86810CC
:1056700030BD0121A0F86A10F8E70000E47B0008C3
:1056800090F82810C90706D001684A68C36A22F456
:1056900000321A434A6090F82810890706D501683D
:1056A0004A68036B22F480321A434A6090F828104B
:1056B000490706D501684A68436B22F480221A43E1
:1056C0004A6090F82810090706D501684A68836B7C
:1056D00022F400421A434A6090F82810C90606D501
:1056E00001688A68C36B22F480521A438A6090F87A
:1056F0002810890606D501688A68036C22F40052D6
:105700001A438A6090F82810490611D501684A6842
:10571000436C22F480121A434A60416CB1F5801F39
:1057200006D101684A68836C22F4C0021A434A60B9
:1057300090F82810090606D501684A68C06C22F462
:10574000002202434A607047F8B500260446C0F8BC
:105750008C60FDF76DFB0546206800686FF07E47A2
:10576000000708D52B4600224FF400112046009771
:1057700000F09AF960B92068006840070AD52B4606
:1057800000224FF480012046009700F08DF908B107
:105790000320F8BD2020C4F88400C4F8880044F831
:1057A0006C6F00202675F8BD10B5806A0021A0F846
:1057B0005E10A0F85610FEF7ACFD10BD10B50268E3
:1057C00052E8001F21F4907142E80013002BF6D13B
:1057D0000E4B0268083252E8001F194042E80014DC
:1057E000002CF6D1C16E012908D1016851E8002FC3
:1057F00022F0100241E80023002BF6D12021C0F84E
:1058000088100021C166016710BD0000FEFFFFEF98
:105810002DE9F0410446016880682269E36910437C
:10582000626900251A431043DFF84CC20A68934BA3
:105830001A4002430A6020684168E26821F440513E
:10584000114341602168A069614501D0226A10437B
:105850008A688B4B1A4002438A602068C16A626A78
:1058600021F00F011143C1628649236886488B42AB
:105870000DD1D0F8880010F0030006D0012867D0C1
:10588000022854D0032851D164E001204FE07F4921
:105890008B420BD1D0F8880010F00C0047D00428C0
:1058A00045D0082852D00C2840D153E078498B428B
:1058B0000BD1D0F8880010F0300038D0102847D035
:1058C000202843D0302831D144E072498B420BD19B
:1058D000D0F8880010F0C00029D0402838D08028A7
:1058E00034D0C02822D135E06B498B420ED1D0F89C
:1058F000880010F440701AD0B0F5807F28D0B0F541
:10590000007F23D0B0F5407F10D123E063450DD157
:10591000D0F8880010F4406009D0B0F5806F17D03F
:10592000B0F5006F12D0B0F5406F13D010205B4A75
:105930005B4F00264FF40041634539D160B1022826
:105940000DD004280DD0082831D10EE00220EEE75A
:105950000420ECE70820EAE7FDF794FE03E0114697
:1059600003E0FDF7B3FE01007BD0606A37F810203A
:105970006768B1FBF2F007EB4703834269D8B0EBED
:10598000073F66D8002308461946FAF7C7FC090204
:1059900041EA106102027808101871413A4600236A
:1059A000FAF7BCFC3F4AA0F54071914257D950E04C
:1059B000E3694FF6EF788B422BD1092849D2DFE813
:1059C00000F005080D48254848480E00FDF75AFE2E
:1059D00001E0FDF769FE010001D142E01146606A75
:1059E00037F81000B1FBF0F04100606801EB5001A6
:1059F000B1FBF0F1A1F1100040452AD84FF6F0724A
:105A000001EA0200C1F34201084328E0FDF75EFE0F
:105A1000E1E709281DD2DFE800F005080D1C1E1C77
:105A20001C1C0E00FDF72EFE01E0FDF73DFE0100FF
:105A300001D116E01146606A37F81000B1FBF0F1B1
:105A4000606801EB5001B1FBF0F0A0F1100141459D
:105A500004D9012505E0FDF739FEE8E780B22168A9
:105A6000C8600120A4F86A0024F8680F2846A660E0
:105A7000E660BDE8F081000000800040F369FFCFE0
:105A8000FFF4FF11003801400010024000440040C4
:105A900000480040004C0040005000400024F4004A
:105AA000CC7B0008FFFC0F002DE9F0479A46174613
:105AB0000E4604464FF000094FF02008089D4AE0CA
:105AC000681C48D0FDF7B4F9A0EB0A00A8422AD818
:105AD0004DB32068016849073DD5C069C043000542
